{
  "contractName": "Investment",
  "abi": [
    {
      "inputs": [],
      "stateMutability": "nonpayable",
      "type": "constructor"
    },
    {
      "inputs": [],
      "name": "getBalanceAmount",
      "outputs": [
        {
          "internalType": "int256",
          "name": "",
          "type": "int256"
        }
      ],
      "stateMutability": "view",
      "type": "function",
      "constant": true
    },
    {
      "inputs": [],
      "name": "getDepositAmount",
      "outputs": [
        {
          "internalType": "int256",
          "name": "",
          "type": "int256"
        }
      ],
      "stateMutability": "view",
      "type": "function",
      "constant": true
    },
    {
      "inputs": [
        {
          "internalType": "int256",
          "name": "amount",
          "type": "int256"
        }
      ],
      "name": "addDepositAmount",
      "outputs": [],
      "stateMutability": "nonpayable",
      "type": "function"
    },
    {
      "inputs": [],
      "name": "withdrawBalance",
      "outputs": [],
      "stateMutability": "nonpayable",
      "type": "function"
    }
  ],
  "bytecode": "0x608060405234801561001057600080fd5b50600080819055506000600181905550600c6002819055506003808190555061029b8061003e6000396000f3fe608060405234801561001057600080fd5b506004361061004c5760003560e01c806349c53b921461005157806358d3e10f1461006d5780635fd8c7101461008b5780637d96f69314610095575b600080fd5b61006b6004803603810190610066919061014b565b6100b3565b005b6100756100ec565b6040516100829190610187565b60405180910390f35b6100936100f5565b005b61009d610106565b6040516100aa9190610187565b60405180910390f35b806001546100c191906101d1565b600181905550600254600154126100e9576003546001546100e291906101d1565b6000819055505b50565b60008054905090565b600080819055506000600181905550565b6000600154905090565b600080fd5b6000819050919050565b61012881610115565b811461013357600080fd5b50565b6000813590506101458161011f565b92915050565b60006020828403121561016157610160610110565b5b600061016f84828501610136565b91505092915050565b61018181610115565b82525050565b600060208201905061019c6000830184610178565b92915050565b7f4e487b7100000000000000000000000000000000000000000000000000000000600052601160045260246000fd5b60006101dc82610115565b91506101e783610115565b9250817f7fffffffffffffffffffffffffffffffffffffffffffffffffffffffffffffff03831360008312151615610222576102216101a2565b5b817f800000000000000000000000000000000000000000000000000000000000000003831260008312161561025a576102596101a2565b5b82820190509291505056fea2646970667358221220dc338185e4b57318af252d76a492ac45a4f59cbeedeef49ce3804fd03423a37764736f6c634300080b0033",
  "immutableReferences": {},
  "source": "pragma solidity 0.8.11;\r\n\r\ncontract Investment {\r\n    // amount returned to user\r\n    int256 balanceAmount;\r\n\r\n    // amount deposited by user\r\n    int256 depositAmount;\r\n\r\n    // minimum amount to be deposited by user\r\n    int256 thresholdAmount;\r\n\r\n    // amount to be returned in addition to depositAmount to user\r\n    int256 returnOnInvestment;\r\n\r\n    constructor() public {\r\n        balanceAmount = 0;\r\n        depositAmount = 0;\r\n        thresholdAmount = 12;\r\n        returnOnInvestment = 3;\r\n    }\r\n    // read operation\r\n    function getBalanceAmount() public view returns (int256) {\r\n        return balanceAmount;\r\n    }\r\n\r\n    // read operation\r\n    function getDepositAmount() public view returns (int256) {\r\n        return depositAmount;\r\n    }\r\n    \r\n    // write operation\r\n    function addDepositAmount(int256 amount) public {\r\n        depositAmount = depositAmount + amount;\r\n\r\n        if (depositAmount >= thresholdAmount) {\r\n            balanceAmount = depositAmount + returnOnInvestment;\r\n        }\r\n    }\r\n\r\n    // write function\r\n    function withdrawBalance() public {\r\n        balanceAmount = 0;\r\n        depositAmount = 0;\r\n    }\r\n}",
  "sourcePath": "D:\\OneDrive\\Documents\\CCU\\CCU\\Revio\\contracts\\Investment.sol",
  "compiler": {
    "name": "solc",
    "version": "0.8.11+commit.d7f03943.Emscripten.clang"
  },
  "schemaVersion": "3.4.4",
  "updatedAt": "2022-01-27T15:37:03.156Z",
  "networkType": "ethereum",
  "devdoc": {
    "kind": "dev",
    "methods": {},
    "version": 1
  },
  "userdoc": {
    "kind": "user",
    "methods": {},
    "version": 1
  }
}