{
  "contractName": "Revio",
  "abi": [
    {
      "inputs": [],
      "payable": false,
      "stateMutability": "nonpayable",
      "type": "constructor"
    },
    {
      "constant": true,
      "inputs": [],
      "name": "getWallet",
      "outputs": [
        {
          "internalType": "int256",
          "name": "",
          "type": "int256"
        }
      ],
      "payable": false,
      "stateMutability": "view",
      "type": "function"
    },
    {
      "constant": true,
      "inputs": [],
      "name": "getSubscription",
      "outputs": [
        {
          "internalType": "int256",
          "name": "",
          "type": "int256"
        }
      ],
      "payable": false,
      "stateMutability": "view",
      "type": "function"
    },
    {
      "constant": false,
      "inputs": [
        {
          "internalType": "int256",
          "name": "amount",
          "type": "int256"
        }
      ],
      "name": "changeSubscription",
      "outputs": [],
      "payable": false,
      "stateMutability": "nonpayable",
      "type": "function"
    },
    {
      "constant": false,
      "inputs": [
        {
          "internalType": "int256",
          "name": "amount",
          "type": "int256"
        }
      ],
      "name": "addFunds",
      "outputs": [],
      "payable": false,
      "stateMutability": "nonpayable",
      "type": "function"
    },
    {
      "constant": false,
      "inputs": [
        {
          "internalType": "int256",
          "name": "amount",
          "type": "int256"
        }
      ],
      "name": "withdraw",
      "outputs": [],
      "payable": false,
      "stateMutability": "nonpayable",
      "type": "function"
    }
  ],
  "bytecode": "0x608060405234801561001057600080fd5b5060008081905550600060018190555060076002819055506101c9806100376000396000f3fe608060405234801561001057600080fd5b50600436106100575760003560e01c8063132996041461005c5780637e62eab81461007a578063b2d92309146100a8578063c3821023146100d6578063ff0b906c14610104575b600080fd5b610064610122565b6040518082815260200191505060405180910390f35b6100a66004803603602081101561009057600080fd5b810190808035906020019092919050505061012b565b005b6100d4600480360360208110156100be57600080fd5b810190808035906020019092919050505061014a565b005b610102600480360360208110156100ec57600080fd5b810190808035906020019092919050505061016b565b005b61010c61018a565b6040518082815260200191505060405180910390f35b60008054905090565b6000816000540312610147578060008082825403925050819055505b50565b60025481600154011261016857806001600082825401925050819055505b50565b6000816000540112610187578060008082825401925050819055505b50565b600060015490509056fea265627a7a723158203a0494609abd6adeb9ea6a9204e3a70a46822b0aa39397d55cc144c517c1c2af64736f6c63430005100032",
  "source": "// SPDX-License-Identifier: GPL-3.0\r\n\r\npragma solidity >=0.4.22 <0.9.0;\r\n\r\n/** \r\n * @title Ballot\r\n * @dev Implements voting process along with vote delegation\r\n */\r\ncontract Revio{\r\n    int256 wallet;\r\n    int256 subscription;\r\n    int256 minimumSubscription;\r\n\r\n    constructor() public{\r\n        wallet = 0;\r\n        subscription = 0;\r\n        minimumSubscription = 7;\r\n    }\r\n\r\n    function getWallet() public view returns (int256) {\r\n return wallet;\r\n}\r\n\r\nfunction getSubscription() public view returns (int256) {\r\n return subscription;\r\n}\r\n\r\nfunction changeSubscription(int256 amount) public {\r\n    if(subscription + amount >= minimumSubscription)\r\n    {\r\n        subscription += amount;\r\n    }\r\n}\r\n\r\nfunction addFunds(int256 amount) public{\r\n    if(wallet + amount >= 0){\r\n        wallet += amount;\r\n    }\r\n}\r\n\r\nfunction withdraw(int256 amount) public{\r\n    if(wallet - amount >= 0){\r\n        wallet -= amount;\r\n    }\r\n}\r\n}",
  "sourcePath": "C:\\TRABALHO\\CCU\\CCU\\Revio\\contracts\\coinio.sol",
  "compiler": {
    "name": "solc",
    "version": "0.5.16+commit.9c3226ce.Emscripten.clang"
  },
  "schemaVersion": "3.4.4",
  "updatedAt": "2022-02-03T15:53:03.308Z",
  "devdoc": {
    "details": "Implements voting process along with vote delegation",
    "methods": {},
    "title": "Ballot"
  },
  "userdoc": {
    "methods": {}
  }
}