{
  "contractName": "Revio",
  "abi": [
    {
      "inputs": [],
      "payable": false,
      "stateMutability": "nonpayable",
      "type": "constructor"
    },
    {
      "constant": true,
      "inputs": [],
      "name": "getWallet",
      "outputs": [
        {
          "internalType": "int256",
          "name": "",
          "type": "int256"
        }
      ],
      "payable": false,
      "stateMutability": "view",
      "type": "function"
    },
    {
      "constant": true,
      "inputs": [],
      "name": "getSubscription",
      "outputs": [
        {
          "internalType": "int256",
          "name": "",
          "type": "int256"
        }
      ],
      "payable": false,
      "stateMutability": "view",
      "type": "function"
    },
    {
      "constant": false,
      "inputs": [
        {
          "internalType": "int256",
          "name": "amount",
          "type": "int256"
        }
      ],
      "name": "changeSubscription",
      "outputs": [],
      "payable": false,
      "stateMutability": "nonpayable",
      "type": "function"
    },
    {
      "constant": false,
      "inputs": [
        {
          "internalType": "int256",
          "name": "amount",
          "type": "int256"
        }
      ],
      "name": "addFunds",
      "outputs": [],
      "payable": false,
      "stateMutability": "nonpayable",
      "type": "function"
    }
  ],
  "bytecode": "0x608060405234801561001057600080fd5b506000808190555060006001819055506007600281905550610171806100376000396000f3fe608060405234801561001057600080fd5b506004361061004c5760003560e01c80631329960414610051578063b2d923091461006f578063c38210231461009d578063ff0b906c146100cb575b600080fd5b6100596100e9565b6040518082815260200191505060405180910390f35b61009b6004803603602081101561008557600080fd5b81019080803590602001909291905050506100f2565b005b6100c9600480360360208110156100b357600080fd5b8101908080359060200190929190505050610113565b005b6100d3610132565b6040518082815260200191505060405180910390f35b60008054905090565b60025481600154011261011057806001600082825401925050819055505b50565b600081600054011261012f578060008082825401925050819055505b50565b600060015490509056fea265627a7a7231582053f0491cd068cc5f19b2f3e1848be5c810b67c2a183b2ee5ce64b0839320430664736f6c63430005100032",
  "source": "// SPDX-License-Identifier: GPL-3.0\r\n\r\npragma solidity >=0.4.22 <0.9.0;\r\n\r\n/** \r\n * @title Ballot\r\n * @dev Implements voting process along with vote delegation\r\n */\r\ncontract Revio{\r\n    int256 wallet;\r\n    int256 subscription;\r\n    int256 minimumSubscription;\r\n\r\n    constructor() public{\r\n        wallet = 0;\r\n        subscription = 0;\r\n        minimumSubscription = 7;\r\n    }\r\n\r\n    function getWallet() public view returns (int256) {\r\n return wallet;\r\n}\r\n\r\nfunction getSubscription() public view returns (int256) {\r\n return subscription;\r\n}\r\n\r\nfunction changeSubscription(int256 amount) public {\r\n    if(subscription + amount >= minimumSubscription)\r\n    {\r\n        subscription += amount;\r\n    }\r\n}\r\n\r\nfunction addFunds(int256 amount) public{\r\n    if(wallet + amount >= 0){\r\n        wallet += amount;\r\n    }\r\n}\r\n}",
  "sourcePath": "D:\\OneDrive\\Documents\\CCU\\CCU\\Revio\\contracts\\coinio.sol",
  "compiler": {
    "name": "solc",
    "version": "0.5.16+commit.9c3226ce.Emscripten.clang"
  },
  "schemaVersion": "3.4.4",
  "updatedAt": "2022-02-03T15:07:09.530Z",
  "networkType": "ethereum",
  "devdoc": {
    "details": "Implements voting process along with vote delegation",
    "methods": {},
    "title": "Ballot"
  },
  "userdoc": {
    "methods": {}
  }
}