{
  "contractName": "Revio",
  "abi": [
    {
      "inputs": [],
      "stateMutability": "nonpayable",
      "type": "constructor"
    },
    {
      "inputs": [],
      "name": "getWallet",
      "outputs": [
        {
          "internalType": "int256",
          "name": "",
          "type": "int256"
        }
      ],
      "stateMutability": "view",
      "type": "function"
    },
    {
      "inputs": [],
      "name": "getSubscription",
      "outputs": [
        {
          "internalType": "int256",
          "name": "",
          "type": "int256"
        }
      ],
      "stateMutability": "view",
      "type": "function"
    },
    {
      "inputs": [
        {
          "internalType": "int256",
          "name": "amount",
          "type": "int256"
        }
      ],
      "name": "changeSubscription",
      "outputs": [],
      "stateMutability": "nonpayable",
      "type": "function"
    },
    {
      "inputs": [
        {
          "internalType": "int256",
          "name": "amount",
          "type": "int256"
        }
      ],
      "name": "addFunds",
      "outputs": [],
      "stateMutability": "nonpayable",
      "type": "function"
    }
  ],
  "bytecode": "0x608060405234801561001057600080fd5b5060008081905550600060018190555060076002819055506102c7806100376000396000f3fe608060405234801561001057600080fd5b506004361061004c5760003560e01c80631329960414610051578063b2d923091461006f578063c38210231461008b578063ff0b906c146100a7575b600080fd5b6100596100c5565b6040516100669190610155565b60405180910390f35b610089600480360381019061008491906101a1565b6100ce565b005b6100a560048036038101906100a091906101a1565b610101565b005b6100af610132565b6040516100bc9190610155565b60405180910390f35b60008054905090565b600254816001546100df91906101fd565b126100fe5780600160008282546100f691906101fd565b925050819055505b50565b60008160005461011191906101fd565b1261012f578060008082825461012791906101fd565b925050819055505b50565b6000600154905090565b6000819050919050565b61014f8161013c565b82525050565b600060208201905061016a6000830184610146565b92915050565b600080fd5b61017e8161013c565b811461018957600080fd5b50565b60008135905061019b81610175565b92915050565b6000602082840312156101b7576101b6610170565b5b60006101c58482850161018c565b91505092915050565b7f4e487b7100000000000000000000000000000000000000000000000000000000600052601160045260246000fd5b60006102088261013c565b91506102138361013c565b9250817f7fffffffffffffffffffffffffffffffffffffffffffffffffffffffffffffff0383136000831215161561024e5761024d6101ce565b5b817f8000000000000000000000000000000000000000000000000000000000000000038312600083121615610286576102856101ce565b5b82820190509291505056fea2646970667358221220ca768de87f5b795f11c68990854e2945608d6aed9b41118e6c2fb6e478fc0a6164736f6c634300080b0033",
  "immutableReferences": {},
  "source": "// SPDX-License-Identifier: GPL-3.0\r\n\r\npragma solidity 0.8.11;\r\n\r\n/** \r\n * @title Ballot\r\n * @dev Implements voting process along with vote delegation\r\n */\r\ncontract Revio{\r\n    int256 wallet;\r\n    int256 subscription;\r\n    int256 minimumSubscription;\r\n\r\n    constructor() public{\r\n        wallet = 0;\r\n        subscription = 0;\r\n        minimumSubscription = 7;\r\n    }\r\n\r\n    function getWallet() public view returns (int256) {\r\n return wallet;\r\n}\r\n\r\nfunction getSubscription() public view returns (int256) {\r\n return subscription;\r\n}\r\n\r\nfunction changeSubscription(int256 amount) public {\r\n    if(subscription + amount >= minimumSubscription)\r\n    {\r\n        subscription += amount;\r\n    }\r\n}\r\n\r\nfunction addFunds(int256 amount) public{\r\n    if(wallet + amount >= 0){\r\n        wallet += amount;\r\n    }\r\n}\r\n}",
  "sourcePath": "C:\\Users\\Francisco Rodrigues\\Desktop\\Programas\\flutter\\CCU\\Revio\\contracts\\Coinio.sol",
  "compiler": {
    "name": "solc",
    "version": "0.8.11+commit.d7f03943.Emscripten.clang"
  },
  "schemaVersion": "3.4.4",
  "updatedAt": "2022-02-03T02:30:01.195Z",
  "devdoc": {
    "details": "Implements voting process along with vote delegation",
    "kind": "dev",
    "methods": {},
    "title": "Ballot",
    "version": 1
  },
  "userdoc": {
    "kind": "user",
    "methods": {},
    "version": 1
  }
}